:020000041000EA
:1000000000B5324B212058609868022188439860DF
:10001000D860186158612E4B002199600221596106
:100020000121F02299502B49196001219960352056
:1000300000F044F80222904214D00621196600F024
:1000400034F8196E01211966002018661A6600F04E
:100050002CF8196E196E196E052000F02FF8012189
:100060000842F9D1002199601B49196000215960AB
:100070001A491B48016001219960EB211966A021F2
:10008000196600F012F800219960164914480160C1
:100090000121996001BC002800D000471248134993
:1000A000086003C880F30888084703B5996A0420EC
:1000B0000142FBD001200142F8D103BD02B5186610
:1000C0001866FFF7F2FF186E186E02BD00000240BE
:1000D000000000180000070000035F00212200005C
:1000E000F4000018222000A00001001008ED00E03C
:1000F00000000000000000000000000074B24E7A12
:1001000000200420F7010010C3010010C5010010F9
:10011000C1010010C1010010C1010010C101001097
:10012000C1010010C1010010C1010010C701001081
:10013000C1010010C1010010C9010010CB01001065
:10014000CD010010CD010010CD010010CD01001037
:10015000CD010010CD010010CD010010CD01001027
:10016000CD010010CD010010CD010010CD01001017
:10017000CD010010CD010010CD010010CD01001007
:10018000CD010010CD010010CD010010CD010010F7
:10019000CD010010CD010010CD010010CD010010E7
:1001A000CD010010CD010010CD010010CD010010D7
:1001B000CD010010CD010010CD010010CD010010C7
:1001C00000BE00BE00BE00BE00BE00BEEFF3058054
:1001D000103800BEF2EB887190260010BC2600108B
:1001E0003402001090A31AE700201F49086006C8D7
:1001F00081F3088810471D48006800282FD10DA4FE
:100200000ECC002902D000F012F8F9E71849194A7B
:10021000002000E001C19142FCD1174988471749ED
:1002200088471749884700BEFDE701C901C29A42C5
:10023000FBD37047BC260010C000002084020020C1
:1002400080280010000004200000042080280010F6
:10025000001004200010042000000000704709482E
:1002600001F0AAFD0047000008ED00E0000000D00A
:1002700088020020640600202D1C00105503001089
:10028000251D00105756000006005250ABB36053B6
:100290002826001006005250861C03023826001043
:1002A000060052505422A29D4026001005005250D4
:1002B000DE65F46880280010F8B5C0460448054B98
:1002C00010B5834203D0044B002B00D0984710BDDB
:1002D0008402002084020020000000000648074934
:1002E000091A8910CB0F591810B5491003D0044BC7
:1002F000002B00D0984710BD84020020840200200B
:100300000000000010B5074C2378002B09D1FFF73F
:10031000D5FF054B002B02D0044800E000BF0123AD
:10032000237010BD88030020000000005825001035
:10033000054B10B5002B03D00449054800E000BF71
:10034000FFF7CCFF10BDC046000000008C0300206A
:1003500058250010F8B58025D024AD042E0001F0FA
:10036000C7FF192000F02AF82406074F6562A6612E
:10037000FA2000F03DFD6561380001F083FFFA20AE
:10038000800000F035FDF2E770250010094A830077
:1003900094464022634410B51C68C0006240C024EB
:1003A00014408022520113431C60034B9C4660445E
:1003B000416010BD04C00140004001400123D02233
:1003C0008340120693629361094A83009446402257
:1003D00063441968C0004A40C02111408022520184
:1003E00013431960034B9C460523604443607047E8
:1003F00004C0014000400140024B18688007C00F54
:100400007047C04600C00640F8B5EFF3108772B6DB
:100410000D4E3368002BFCD0BFF35F8F0725CB0850
:10042000C01801230D40AB401D000478254007D1C2
:1004300023430370BFF35F8F356087F31088F8BDE7
:10044000100001F073FCC0462C0100D00021044BC9
:10045000044ABFF35F8F02C39342FAD17047C0468C
:10046000000100D0800100D0044A1078431CDBB2A8
:10047000172B00D9102313707047C046B00100201D
:1004800001238340002904D0034A1360034A136008
:100490007047034A1360FBE780E200E000E100E000
:1004A00080E100E0024B10309B688000C05870472C
:1004B00000ED00E070B50D00EFF3108672B60F4A44
:1004C0001368002BFCD0BFF35F8F0D4B10309B687F
:1004D00084001B590B4A934203D09D4201D001F086
:1004E0003DFC074B9B681D51BFF35F8FBFF35F8FD0
:1004F0000022024B1A6086F3108870BD240100D0E0
:1005000000ED00E0CD010010F0B54546DE4657464F
:100510004E46E0B50D0083B0EFF3108972B6584A2D
:100520001368002BFCD0BFF35F8F564B9A68030013
:1005300010339F00D459544A9046944234D0AC4270
:1005400045D0524EA21B2F2A2ED80122824092461D
:1005500051464F4A12681140019151464D4A11606F
:10056000BFF35F8FEFF305829346002A35D1012355
:10057000220006219A43936851569D420AD16AE0AF
:100580004B005B1806219B00F31898685956A84247
:1005900028D01A000029F3DA019B002B19D052460B
:1005A0003D4B1A603A4B1A60364B9B68DC51BFF3E7
:1005B0005F8FBFF35F8F0022314B1A6089F3108881
:1005C00003B03CBC90469946A246AB46F0BD140031
:1005D000EAE752462F4B1A60E6E79342C7D001F094
:1005E000BDFBC4E7002921DB4A0050188000351804
:1005F0008046A8689860E879D871062028569871D6
:10060000002826DBAD88F01A6D052D1545444019EC
:10061000E0250005400D2D022843988052181F4BFD
:100620009200B6181A781970B271B5E759460029C8
:1006300017D1002A22D0FF319171194991801749B1
:100640000A789A71174A9B1B5B415A43120D0A7034
:10065000A2E71548E1E713000029C5DA5A46002A47
:100660000CD0124A1249D21A083A5002400D0143E6
:100670009980104952080A43DA808DE74446DEE744
:10068000240100D000ED00E0CD010010B4010020F5
:1006900000E100E080E100E080E200E05D04002095
:1006A00001BDFFFFAAAA000001BD0000EE0100206D
:1006B00000F0FFFF00F8FFFFF0B5EFF30581012424
:1006C0000443EFF3108672B6214A1368002BFCD066
:1006D000BFF35F8F1F4B204A0500ED1A6D416A433F
:1006E000120D1E4D8900AF6852B27F58A7421CD030
:1006F0000621595691421CD012215956914222D0BE
:100700001E215956914220D02A2159560324914244
:1007100010D0134B19781A708171BFF35F8F0022CC
:100720000B4B1A6086F31088F0BDAB680D4C5C5023
:10073000EFE700246100091989005B18FF21997116
:1007400009499980E5E70124F4E70224F2E7C0466D
:10075000240100D0B4010020AAAA000000ED00E0AE
:100760005D040020CD01001001BDFFFF054B064ACE
:100770001360064A136053609360D3601361536142
:10078000936170478080808000E400E004E400E032
:10079000024B9C4661448900016070474000003470
:1007A00010B50400FFF760FE01002000FFF7F0FF26
:1007B000FF232371BFF35F8F10BDC04610B5040047
:1007C000FFF752FE01002000FFF7E2FFFF23A380A6
:1007D000BFF35F8F10BDC04670B506000D0014005A
:1007E00000291ED0002A1ED07368806898476300D5
:1007F0006A001B195219033B033A3168002808D0DC
:10080000CB188A189D70117800290ED11470280019
:1008100008E08A18CB1894701978002900D051701C
:100820001D70200070BD0800FCE75970280014708E
:10083000F8E7C04683680B4810B5844661446244BB
:10084000090112019A18591854684B6801209C42FA
:1008500001D802D00020C0B210BD12680B689A42C5
:10086000F9D8F7E7FFFFFF0F0A4B1968EFF3108085
:1008700072B60A68002AFCD0BFF35F8F1B68BFF313
:100880005F8F00221A6080F3108840BF0020002193
:100890007047C04644040020F8B54746CE4680B5B0
:1008A00014001D000BAA0AAB12781B7880469146F3
:1008B0000768002B12D1BE7B002E44D07200921923
:1008C0003968033A891848783300B873002800D192
:1008D000F873002088704870087003E01E005A000A
:1008E000D218033A1A4938008C4641468968634455
:1008F0008C461B0108996344996009991C605D60EE
:10090000D9603B689C460023624493705370137017
:10091000797B3200FFF760FF7873B04213D1434612
:100920002200187D2B0000F075FB041E07D04B46FB
:10093000002B04D143463100186800F0F1FE0C9BF7
:10094000002B00D01C7030000CBC90469946F8BDBE
:10095000FFFFFF0FF0B5DE4657464E4645460023E3
:10096000E0B58BB00893674B8200D45800239B46B8
:10097000099000F0EDFA6268EFF3108572B6136823
:10098000002BFCD0BFF35F8F23689C465B7B9946AE
:10099000002B6CD0A2685C4B90464B441B019844E2
:1009A00043461E685F6832003B00121A8B41002BE1
:1009B00067DD32003B00099800F02CFB0023002289
:1009C000984600230692079300239A466368BFF374
:1009D0005F8F5A461A6085F310885346002B08D162
:1009E0000028C6D10BB03CBC90469946A246AB4607
:1009F000F0BD089B414618024B461843D047626839
:100A000006000F00EFF3108572B61368002BFCD0C0
:100A1000BFF35F8F002F51DB33003B4302D02369CC
:100A2000002B62D12368DA7B002A07D051008A1894
:100A300019688C4649466244033A51709A7B002AF1
:100A400001D14A469A734A46DA73E2684B469446A5
:100A5000013B63441A7801321A705B462361636874
:100A6000BFF35F8F5A461A6085F3108881E7002331
:100A700000229846002306920793002300209A46FE
:100A8000A4E7002B01D1002A93D10021604600F099
:100A900065FD43461A685B680692079343469B6868
:100AA0009A464346DB689846E3684B44013B1B7813
:100AB00008931B0203432361002087E72369002B6F
:100AC000B0D0069A079B921BBB41002B15DB594601
:100AD00004910121039149460291414601915146F9
:100AE00020000091FFF7D8FEB7E700F031FA32009E
:100AF0003B0012184B41002BE9DA0122034B524212
:100B0000E5E7C04630040020FFFFFF0FFFFFFF7F37
:100B100010B5144C6368002B04D00A211248FFF76B
:100B200037FE10BD2300114A1021206800F034FB6D
:100B3000032000F001FA032000F0E0FA0C49032042
:100B400000F022FAFFF790FC0A4B9C460323237522
:100B5000D0231B061B6860446375074B80006060F0
:100B6000DC60DAE7FC0100204404002035080010B6
:100B7000550900104000003430040020F0B55746FD
:100B80004E46DE464546E0B583B0009201930C9B8D
:100B900006009B460EAB1B780027994600239A4619
:100BA0007268EFF3108872B61368002BFCD0BFF3A5
:100BB0005F8F3568AC7B002C63D063001B192A68FB
:100BC000033BD2185178A973002900D1E9739770BB
:100BD00057701770B168374A8C4600980199A2186F
:100BE0001201624410605160594691600D992800CD
:100BF000D1602A68944663449F705F701F70697B60
:100C00002200FFF7E9FD6873844245D0F3681B19A1
:100C1000013B18787368BFF35F8F1F6088F31088FB
:100C20005346002B08D10002204303B03CBC904641
:100C30009946A246AB46F0BD4B46002B2AD00D99F3
:100C40000020D84703000B4324D004000D1E09DA0E
:100C5000009A019B121BAB4100920193002B09DB10
:100C6000CA469DE700F074F924184D41009401959F
:100C7000002DF5DA0123104C5B4200930194CA4623
:100C80008EE77368BFF35F8F1C6088F310880120C4
:100C90004042CAE70020C8E7307D009A019B00F07F
:100CA000B9F982460028B1D02100306800F038FD43
:100CB000ACE7C046FFFFFF0FFFFFFF7FF8B54268BC
:100CC0000400EFF3108572B61368002BFCD0BFF35D
:100CD0005F8FFF232068CEB2427B0B40B24208D028
:100CE00007685A00BC46D2186244033A9278002A38
:100CF00011D0E268090A94466344013B1B78C9B2EB
:100D00008B420ED000206368BFF35F8F00221A6011
:100D100085F31088F8BD23698B42F3D1226100204E
:100D2000F1E7310000F0FCFCEDE7C046F0B504004F
:100D30000D0006267642F717C64636196F4100B5F4
:100D400084B08F4214D811D000F002F932003B0079
:100D5000121A8B41002B15DC002B3ED020002900FD
:100D600000F002F904B004BC9046F0BD8642EBD915
:100D70000026002700F0ECF832003B00121A8B41ED
:100D8000002BE9DD002302930193154B3200009301
:100D900014483B00FFF7F2FE0028DFDB00239846F3
:100DA000BC46114A114F7B6A9C4504D8B96AB142CE
:100DB000D4D29C45D2D11168EFF3108072B60B6883
:100DC000002BFCD0BFF35F8F1368BFF35F8F4146EA
:100DD000196080F3108820BFE5E7002ABED0D1E774
:100DE00069080010FC010020440400200040054078
:100DF00070B5060000F0ACF8FA2204000D00920075
:100E000000233000002101F09FF8001969410029FA
:100E100002DBFFF78BFF70BD012001494042F8E77C
:100E2000FFFFFF7F70B5EFF3058384B005000C0072
:100E3000002B0ED0104A0020536AA34207D3926AB7
:100E40000130AA4203D21C1B601E8441E0B204B0F0
:100E500070BD0A4E02930193094B020000933000CB
:100E60000B00FFF78BFE0028E4DD20BF01003000FF
:100E7000FFF724FFDEE7C04600400540FC010020EC
:100E800069080010F8B5EFF30582CE46474610001A
:100E900080B51038EFF3108C72B6204C2368002B0D
:100EA000FCD0BFF35F8F0123190081401C4D1D4E04
:100EB000716329601C4DA9462D782F00C7403B4027
:100EC00015D0736A194E984683009E59B04517D3C2
:100ED000174A8D439B584A461570BFF35F8F002217
:100EE00022608CF31088002B06D0984704E0BFF3F3
:100EF0005F8F23608CF310880CBC90469946F8BD38
:100F00000C4B92009846424413681360BFF35F8F06
:100F1000002323608CF31088EEE7C046280100D040
:100F20003C700540004005405E040020480400205D
:100F3000A4030020D03F054010B50100024A034839
:100F4000FFF762FA10BDC046A82500105C0400201F
:100F5000044A516A00E01900906A536A9942FAD132
:100F60007047C04600400540064A536A9942FCD883
:100F700007D1044B02E05A6A914202D19A6A824236
:100F8000F9D370470040054070B504000D00EFF341
:100F9000108672B61A4A1368002BFCD0BFF35F8F1D
:100FA000002D1BD02000FFF77DFA164988420AD099
:100FB0002000FFF77FFA01212000FFF761FA0123EB
:100FC000A340114A1360114BA400E550BFF35F8F9B
:100FD00000220B4B1A6086F3108870BD0B4BA200E9
:100FE000D5500122A2400A4920000B7893430B7090
:100FF0000449FFF789FA00212000FFF741FAE5E7ED
:10100000280100D0850E001038600540A4030020A0
:101010005E040020F0B5D6464F464646324CC0B579
:10102000656A00E00D00A66A616AA942FAD1AB4286
:1010300009D806D0012420001CBC90469946A2463F
:10104000F0BDB242F6D9EFF3108972B6274C216891
:101050000029FCD0BFF35F8F0126254986408C46CE
:101060000978244D0F0037438846F9B28A46614615
:1010700054460C701C49041DA4004E636250840049
:1010800063510D6A002435421AD04D6A00E02500F4
:101090008F6A4C6AAC42FAD1AB4219D801D1BA423C
:1010A00016D8C2451DD0104B134A1E625E631F2323
:1010B00018401E3B834013606346424601241A7069
:1010C000BFF35F8F0022094B1A6089F31088B2E7E3
:1010D0000024BFF35F8F0022044B1A6089F310884D
:1010E000A9E70124ECE7C04600400540280100D0F4
:1010F0005E0400204804002080E200E010B5EFF319
:10110000108472B60A490B68002BFCD0BFF35F8FC6
:1011100001238340074A0848136202789A43027009
:10112000BFF35F8F00230B6084F3108810BDC046AF
:10113000280100D0004005405E04002070B5060084
:101140000D00140000291ED0002A1ED0736880688C
:10115000984763006A001B195219033B033A316830
:10116000002808D0CB188A189D70117800290ED15C
:101170001470280008E08A18CB1894701978002998
:1011800000D051701D70200070BD0800FCE7597040
:1011900028001470F8E7C046F0B5DE4657464E46C4
:1011A0004546E0B58360002389B04260026806913D
:1011B0004373C9B20133059101738373C173049200
:1011C000012900D8A4E00A004B1ED9B2931E079152
:1011D000072B00D8AEE00025CB080393049B564CA8
:1011E000591C564B56489B46564B9A46564B9C4666
:1011F000564B0293524663465F465E4662401A4033
:10120000504B2740FB185A4006405346019666460D
:10121000434033404B4E0A70B046019E0135B14603
:10122000C844464673401604360ECE701602120E9F
:101230004A721A04120E0B73CA731A021B0E4B75F4
:10124000029B360E5C4063461C40404B120E984693
:10125000029B47445840634618404B46434458401D
:10126000039BEDB28E718A747C401831AB42C1D1C0
:10127000079907230A009A43531CDBB2914247D0D7
:10128000049C5A00A446D218591C6244059DC9B258
:10129000033A51708D423BD94A005218981C62445F
:1012A000C0B2033A5070854232D942001218D91C9C
:1012B0006244C9B2033A51708D4229D94A0052188A
:1012C000181D6244C0B2033A5070854220D94200D2
:1012D0001218591D6244C9B2033A51708D4217D990
:1012E0004A005218981D6244C0B2033A50708542B9
:1012F0000ED942001218D91D6244C9B2033A517086
:101300008D4205D94A0052186244033A083353709B
:10131000FF23069A13405900C918049B9C460023DA
:10132000614403394B7009B03CBC90469946A246D3
:10133000AB46F0BD0123A3E7010203047F7F7F7F5B
:10134000050607080101010180808080080808085F
:1013500070B50400002907D04B0000685B18033B00
:10136000C3185A78002A01D1080070BD5500AD1885
:10137000033D40190025467845705D702000FFF759
:10138000DDFE310005002000FFF7E2FF290002002A
:101390002000FFF7D3FE0100E6E7C046F0B54E4659
:1013A0004546DE465746E0B50E0074000168A419B4
:1013B00085B0033C01920A1905001078002850D02E
:1013C00043001B18033BCB185F78BC46002F1AD193
:1013D000019C002C42D0EC7B002C04D063001B1934
:1013E000CB18033B5E70AB7B002B00D1AE73EE736A
:1013F00000282FD10023537005B03CBC904699467D
:10140000A246AB46F0BD7A006244033A89184A7896
:10141000934600224A7090465A7001003A00280014
:10142000FFF78CFE5B468146002B07D05B002968E6
:101430005B44033BCB185A78002A16D15A464946DA
:101440002800FFF77BFE2968019B0A19002BC2D1F7
:101450000028CFD043001B18033BCB180021997004
:10146000C8E7019B002BB6D1C4E7500080180338B1
:1014700009184878824640464870587059462800F6
:10148000FFF75CFE53468346002B07D05B002968BC
:101490005344033BCB185A78002A06D1594652468A
:1014A0002800FFF74BFE8346C8E75000801803383A
:1014B000091840464F7848705870514628000297E6
:1014C000FFF73CFE8246002F08D0BC467B0029680F
:1014D0006344033BCB185A78002A06D15146029A3E
:1014E0002800FFF72BFE8246D8E75000801803380B
:1014F000091840464F7848705870029928000397A1
:10150000FFF71CFE8046002F08D0BC467B002968F0
:101510006344033BCB185A78002A06D1039A41460C
:101520002800FFF70BFE0290D8E703205043033852
:10153000091800204F784870587003992800FFF769
:10154000FDFD390002902800FFF702FF029902001A
:101550002800FFF7F3FD0390E0E7C046F0B54E46E4
:101560004546DE465746E0B5467B040075000068F8
:10157000AD19033D85B0421901911178002952D06F
:101580004B005B18033BC3185F78BC46002F1CD18F
:10159000019D002D44D0E57B002D04D06B005B192C
:1015A000C318033B5E70A37B002B00D1A673E673C8
:1015B000002931D1002330005370617305B03CBC69
:1015C00090469946A246AB46F0BD7A006244033A83
:1015D0008018427893460022427090465A7020004C
:1015E0003A00FFF7ABFD5B468146002B07D05B005E
:1015F00021685B44033BCB185A78002A17D15A461E
:1016000049462000FFF79AFD019B0100206842191E
:10161000002BC0D10029CDD04B005B18033BC31871
:1016200000209870C6E7019B002BB4D1C2E75000A0
:101630008018033809184878824640464870587028
:1016400059462000FFF77AFD53468346002B07D00A
:101650005B0021685344033BCB185A78002A06D11B
:10166000594652462000FFF769FD8346C7E7500000
:1016700080180338091840464F7848705870514612
:1016800020000297FFF75AFD8246002F08D0BC4683
:101690007B0021686344033BCB185A78002A06D1AB
:1016A0005146029A2000FFF749FD8246D8E75000D4
:1016B00080180338091840464F78487058700299CE
:1016C00020000397FFF73AFD8046002F08D0BC4664
:1016D0007B0021686344033BCB185A78002A06D16B
:1016E000039A41462000FFF729FD0290D8E7032026
:1016F00050430338091800204F78487058700399F8
:101700002000FFF71BFD390002902000FFF720FEAC
:10171000029902002000FFF711FD0390E0E7C046A8
:1017200070B5040000292CD0437B8B422ED0056875
:1017300048004018033828188278002A21D0530026
:101740009B18033BEB181A788A4202D11BE0002A4F
:1017500008D053009B18033BEB185A788A42F6D105
:1017600042785A7000230122837043702000FFF7F3
:1017700015FE617B02002000FFF7E0FC6073012092
:1017800000E0002070BD42781A70EBE701221900DA
:10179000FFF704FE60730120F4E7C046F8B50400CB
:1017A00006200D0000F0CCF9002845D02B4B2C4929
:1017B000E3185A4253418022D20394465B421340BD
:1017C000284A63441360284A136018008A689043CB
:1017D000FBD1224B8021E3185A425341234A5B003C
:1017E00049000620995200F0ABF92900C00000F032
:1017F00011FBC30921D14027012226008025626206
:10180000A36200232C36AD0135432B60062000F087
:1018100097F93900800000F0FDFA6023E26A534036
:101820006E221A4080235B0133431A60104B2363FE
:1018300010232B600D3BA364F8BD0E4A934203D9DD
:1018400000230D4F0D4AD8E77F2210400130400899
:101850009F011A003F180300CFE7C0460080FCBF7D
:1018600000C0004000E0004000F0004060040020A4
:1018700001030000FEFF0000C0FF3F00FFFF00006B
:1018800030B50C2083B000F0B5F9FEF7B5FD0028A7
:101890000ED0944B944A1A605A609A60DA601A61CA
:1018A0005A619A61DA611A62904A5A6203B030BD95
:1018B0008F4CA06700F0A6F901228E4B1A60636C72
:1018C000012BFCD103228C4B1A60894A936B012BAC
:1018D000FCD101330093894A04330121884800F088
:1018E00035F90523874A00930121874800F02EF936
:1018F000864B5A68FF2A02D8802252005A60802202
:10190000784C7D4B21691201804D1A60002905D069
:10191000606900F07FFA01300138FDD1E0217B4B96
:1019200002201A681140802252012A43116019686E
:10193000484003210140116004219A681142FCD003
:101940008022802192012A430901116080225200E5
:101950005A606F4B23616F4B5968FF2900D85A605A
:1019600003226C48634B01211A60020093681942FC
:10197000FCD0E02513681D4080235B0103431D60FC
:1019800012684A400321114019600221614A93689C
:101990001942FCD0802380219B0103430901196077
:1019A00080215D4B4900516063615C4B5A68FF2A9E
:1019B00000D8596080225A4BE1691201574D1A60D4
:1019C000002905D0606900F025FA01300138FDD109
:1019D000E02252490B681A4080235B012B431A60B6
:1019E000802380229B012B4312011A6080223E4BF0
:1019F00052004A60E3614B4B5968FF2900D85A6096
:101A00008022494B216A1201464D1A60002905D0F7
:101A1000606900F0FFF901300138FDD1E022414951
:101A20000B681A4080235B012B431A6080238022BD
:101A30009B012B4312011A6080235B004B602A4BF1
:101A40003A4A23623A4B5968914201D801325A60AE
:101A50008022384B616A1201354D1A60002905D089
:101A6000606900F0D7F901300138FDD1E02230493A
:101A70000B681A4080235B012B431A60802380226D
:101A80009B012B4312011A608023DB024B60174B32
:101A90006362294B5A68FF2A02D8802252005A609A
:101AA0008022264BA1691201234D1A60002905D01E
:101AB000606900F0AFF901300138FDD1E0221E4924
:101AC0000B681A4080235B012B431A60802380221D
:101AD0009B012B4312011A6080235B004B600E4B6D
:101AE000A361E3E6BC030020006CDC021BB700002E
:101AF000008000403CB0004030B00040002F6859EA
:101B000000800240008C864700C0024030800040C8
:101B1000001BB7003C8000404059730754800040D0
:101B200054B000406080004060B00040FFFF030000
:101B30006C8000406CB000404880004048B00040DD
:101B4000014B8000C0587047BC030020F8B504006A
:101B50000C201E0017000D0000F05CF94201121A63
:101B60009101891AC90009188901380000F052F959
:101B7000069B226836041B033343002A21DB194AE3
:101B8000194EA21851424A41802149018C465242C5
:101B90000A40164962440A6015490A601700B16894
:101BA0008F43FBD1C021221D8901114321222560D1
:101BB000A0600A602268002AFCDAE36008230B6058
:101BC000F8BD3F2221680A40AA42D8D1A268120576
:101BD000120D8242D3D1EE21E268C9020A409A4234
:101BE000CDD1EDE70040FDBF00C0004000E0004067
:101BF00000F000408023024A9B000343D3627047F9
:101C000000800540AA23064A1B0113602F230549C3
:101C1000D360054B19605368002BFCDA7047C0464F
:101C20000040024000B0FA00006002402D4B2E4AF6
:101C300070B51A602D4A2E4B2E491A6010008B6821
:101C40009843FBD12C4C2D4B9C4209D2013B1D1BD0
:101C5000AD080135AD002D1908CC9847AC42FBD139
:101C6000FFF70EFE264A224B1A60224A9368DB01D8
:101C70008033FBD14022234B234D24489A675A6777
:101C80001A67DA66A84205D30EE0FEF797FD20003A
:101C9000AC4209D2040003680834002BF5D1FEF7EA
:101CA0007FFD2000AC42F5D3194C1A4DA168C0222B
:101CB000280000F0B5F9A560FEF7C8FBFEF756FD59
:101CC000FEF726FF144C154B9C4209D2013B1D1B0D
:101CD000AD080135AD002D1908CC9847A542FBD1C0
:101CE00070BDC04600E00040BFCDFBFEFE7F3C0063
:101CF00000F0004000C00040700200208002002080
:101D0000FFFFFF0100F00140700200206802002088
:101D100000ED00E00000002080020020840200208E
:101D200000BEFDE710B5FFF7FBFFC0460FB400B5DE
:101D3000084883B000F0A6FA049B002B07D005A941
:101D40001800019100F018F8034800F09BFA0120F8
:101D5000FFF7E6FFD8250010E825001010B5014870
:101D6000FFF7E4FFCC25001010B5002800D110BD0E
:101D700000F03CFAFBE7C04610B5094A84B014688D
:101D8000002C09D0012200910300524203A905480A
:101D9000A047012004B010BD00F074FA0020F9E75C
:101DA0002C040020691D001001480421014B184734
:101DB00030020020D91D0010142310B5010018882E
:101DC00004331B88984710BD162310B501001888EE
:101DD00002331B88984710BDF0B5C64600B50029F0
:101DE00016D01423040001259846182789004618A8
:101DF0004346216818883B88984701C4431E984190
:101E000040420540A642F3D1280004BC9046F0BDF4
:101E10000125F9E7114A936F9B0813D210665166AA
:101E2000002905D0FFE7FFE7FFE7516F106F70470C
:101E300004B5002801D00020C04300F07DFB002144
:101E400004BDC046F0B5146E556E576F166FFFF7A0
:101E5000E5FF1466556657671667F0BD000000D0B1
:101E6000132370B51D78012D15D010DD2648FFF71E
:101E7000ABFF264C01008022200000F0D1F8022D9B
:101E800006D02348FFF798FF224B186070BD1F4C07
:101E9000214AA264F5E71D4C1F4AA3085B421D407E
:101EA0002FD02B0022602020A9006118451B0A605A
:101EB0004A608A60CA600A614A618A61CA610A62CC
:101EC0004A628A62CA620A634A638A63CA630A64AC
:101ED0004A648A64CA640A654A658A65CA650A668C
:101EE0004A668A66CA660A674A676D08102D03D17A
:101EF0008A67CA67A264C4E71E339B00E250A264EB
:101F0000BFE70023CFE7C04653440000640400202D
:101F10004C330000400400201D1F001007B5604630
:101F200001880A0A0230DF2AFAD1C9B2820804D332
:101F3000028840880004104300E00068014A5050C5
:101F4000039007BD6404002051434343C9188C46E5
:101F5000110C83B24B4310B4040C614392B280B2B3
:101F6000504362431C041B0C001910BC594113045C
:101F7000120CC0185141614470470000132310B582
:101F80001C781348FFF720FF012C0BD004DD010063
:101F90008022104800F044F80F48FFF70DFF0F4B68
:101FA000186010BD0B4C01005422200000F038F8DE
:101FB0000B4B6365A365E36523666366A366E3660F
:101FC00023676367A367E3672362E361E4E7C046CF
:101FD00053460000640500204C33000040040020FC
:101FE000E51F001007B5604601880A0A0230DF2AA3
:101FF000FAD1C9B2820804D3028840880004104391
:1020000000E00068014A5050039007BD64050020BD
:1020100001480421014B184740020020D91D00103F
:10202000014B5B681847000040020020030010B518
:1020300008001B681100984710BDC046F8B5474618
:10204000CE4680B5437D80460C001500002B43D062
:10205000002A34DD0A78037D00200A2A33D0012DBE
:102060001ED0204B0121671E994602E03100B54287
:1020700016D0635C7A5C4E1C0A2BF7D10D2AF5D082
:1020800043461B68884204DA091A201898474346D9
:102090001B6802214846984730003100B542E8D11C
:1020A000854204DD4346291A1B68201898476419A5
:1020B000013C23780D3B5A425341424613750CBCF8
:1020C00090469946F8BD002BC9D1434605480221E8
:1020D0001B6898470120C2E7036811002000984759
:1020E000EDE7C0464C260010F0B5DE4657464E469A
:1020F0004546E0B585B017001C0006000D00FEF750
:1021000027FF0023324A12184B41002B5BDB314979
:102110000800884600F018FA01906B1C03D13000CB
:1021200000F0CAF90500002C28D12B4B9A462B4B06
:102130001C68002C15D0002F23D1294F02E0246900
:10214000002C0ED02368002BF9D03B68002B01D067
:10215000A342F4D120002A003100D0472469002C8A
:10216000F0D1019B002B2AD1681E8541E8B205B051
:102170003CBC90469946A246AB46F0BD194B9A46E8
:10218000D5E7174B9B4602ABDF1D0A23994602E0B9
:102190002469002CE5D02368002BF9D05B461B682E
:1021A000002B01D0A342F3D12A0031002000D047F8
:1021B0004B460122390020003B70D047E8E74046FB
:1021C00000F0B2F9D0E70122074B52429FE7C04628
:1021D00040420F00680200203D200010240400202F
:1021E000280400202D200010FFFFFF7FF0B5CE4611
:1021F000474680B583B06B46DE1D05003070FEF7A4
:10220000A7FE00231A4A12184B41002B2CDB194F52
:10221000380000F099F9184B80461C68002C16D045
:10222000164B994602E02469002C10D02368002B3D
:10223000F9D04B461B68002B01D0A342F3D12000FC
:1022400001223100FFF7FAFE2469002CEED143464B
:10225000002B05D1280003B00CBC90469946F0BD78
:10226000380000F061F9F5E70122054B5242CEE754
:1022700040420F00680200202404002028040020AF
:10228000FFFFFF7F70B5040000F016F90023010086
:10229000050001222000FFF727FF084B1C68002CD7
:1022A00006D06368002B05D098472469002CF8D12C
:1022B000280070BD2469002CF3D1F9E72404002024
:1022C0000A4A1368002B05D10CE01A001B69103272
:1022D000002B07D09842F8D1002902D1036913607E
:1022E000016170470029FCD01060FAE72404002047
:1022F00010B500F0BDF8012010BDC046F0B50029B2
:1023000015DD0E4B0D271A680D4B4118D3185C4292
:1023100063410C4C5B001E5F20240578AE4207D061
:1023200093691C42FCD1013015608842F5D1F0BDA3
:1023300093691C42FCD11760F2E7C04658040020A4
:102340000080FCBF6004002030B5002923DD1B4B5A
:102350001A689369DB061ED4002510240138013564
:1023600093691C42FCD113684355A94202D093697A
:102370001C42F4D0124B1B68002B0AD050239363ED
:10238000516B183B34320B401100802252010A433A
:102390001360280030BD0A4B1B68002B0BD0502265
:1023A0003821064B1B689A635A6B343311408022E4
:1023B00052011343196003256D42EAE758040020D7
:1023C000B4030020064B10B51B68002B06D000217B
:1023D000044A12689163044A1068984710BDC046C9
:1023E000B403002058040020B8030020F0B51B4FB0
:1023F0001B4A3B680500981842425041C646194E98
:10240000143000B5884604003268002D08D0002A38
:1024100011D04246144B35601A6004BC9046F0BDA2
:10242000002AF6D09D630021FEF72AF80F4920000C
:10243000FEF76AF8EDE70D49FEF73CF801212000B0
:10244000FEF71EF8502238213B689A635A6B3433EA
:1024500011408022520113431960DAE7580400202A
:102460000080FCBFB4030020B8030020C523001087
:1024700010B50C4B0C4C1B780C4B02211B780C4BF1
:1024800000202360FDF782FF02210120FDF77EFF7F
:10249000E12120684902FFF781F901210548FFF792
:1024A0000FFF10BDB426001058040020B8260010FD
:1024B000004003405002002010B5830727D0037866
:1024C000002B26D00300032102E01A78002A1CD03A
:1024D00001330B42F9D119680F4A104C8A188A430C
:1024E00022420FD1043319680B4A8A188A432242C8
:1024F00008D104331968084A8A188A432242F1D065
:1025000000E001331A78002AFBD1181A10BD03002D
:10251000E1E70020FAE7C046FFFEFEFE80808080F3
:10252000F8B5C0460000000001B40248844601BC72
:10253000604700BF7101002001B40248844601BC1D
:10254000604700BF9901002001B40248844601BCE5
:08255000604700BFC10000203C
:102558000900525000000002982500100600525051
:10256800197CA0B68025001048656C6C6F20576FE9
:10257800726C640A00000000546869732069732053
:102588006120746573742062696E6172792E00002F
:102598004F6E2D626F617264204C4544000000004C
:1025A800486172647761726520616C61726D202583
:1025B8006420616C726561647920636C61696D6522
:1025C800640000004861726420617373657274006E
:1025D8000A2A2A2A2050414E4943202A2A2A0A0038
:1025E8000A00000006005250BBFF3CB6302600101F
:1025F80006005250E182887F1826001006005250CB
:10260800D3F075421026001052656C656173650041
:10261800626F6F74325F7732357130383000000086
:10262800312E352E300000007069636F0000000005
:1026380074657374000000004D61722031382032D7
:10264800303233000D0A00000600525053B4F4A192
:102658007C26001008005250920000005541525448
:1026680020737464696E0000554152542073746479
:102678006F7574005541525420737464696E202F2D
:08268800207374646F75740087
:102690005825001064250010AC020010A0020010A4
:1026A00094020010EC25001088020010F82500109C
:0C26B00004260010502600105C260010CC
:1026BC00F0B5C646160000B504001F000268EFF323
:1026CC00108172B61368002BFCD0BFF35F8F04230C
:1026DC00E356002B36DB2268BFF35F8F00201060BF
:1026EC0081F31088D0220025120655579D4203D144
:1026FC00002004BC9046F0BD002398460CE02268F4
:10270C00BFF35F8F4146116083F3108830003900AE
:10271C0000F03EF80028EBD12268EFF3108372B67C
:10272C0011680029FCD0BFF35F8F22797F2AE6D98C
:10273C0025712268BFF35F8F0021116083F310882D
:10274C000120D6E7D0231B061B6823712368BFF337
:10275C005F8F00221A6081F310880120C9E7C04600
:10276C000268EFF3108172B61368002BFCD0BFF334
:10277C005F8FFF2303710368BFF35F8F00221A6022
:10278C0081F3108840BF70477047C04600000000BE
:10279C0001B40248844601BC604700BF250E0010FE
:1027AC00100000000000000000000100000000000C
:1027BC00000000000000020000000000000000000B
:1027CC000000030000000000000000000000FF00FB
:1027DC000000000001B5486801318E460047704684
:1027EC0009380149884701BDB906001014020020C0
:1027FC000000000088020020E4030020000000001C
:10280C0000000000F40300200000000000000000A5
:10281C00100000000000000000000000000000009C
:10282C00503300004C33000054330000523300008E
:10283C004D5300004D43000053340000433400005E
:10284C00FD2200100000000049230010ED230010B1
:10285C00000000000001000000000000000000006B
:10286C0011200010A91D0010611E00107D1F00100A
:04287C003103001014
:04000005100001E9FD
:00000001FF
